{
  "contractName": "TokenFarm",
  "abi": [
    {
      "inputs": [
        {
          "internalType": "contract Token",
          "name": "_token",
          "type": "address"
        },
        {
          "internalType": "contract DaiToken",
          "name": "_daiToken",
          "type": "address"
        }
      ],
      "stateMutability": "nonpayable",
      "type": "constructor"
    },
    {
      "inputs": [],
      "name": "daiToken",
      "outputs": [
        {
          "internalType": "contract DaiToken",
          "name": "",
          "type": "address"
        }
      ],
      "stateMutability": "view",
      "type": "function",
      "constant": true
    },
    {
      "inputs": [
        {
          "internalType": "address",
          "name": "",
          "type": "address"
        }
      ],
      "name": "hasStaked",
      "outputs": [
        {
          "internalType": "bool",
          "name": "",
          "type": "bool"
        }
      ],
      "stateMutability": "view",
      "type": "function",
      "constant": true
    },
    {
      "inputs": [
        {
          "internalType": "address",
          "name": "",
          "type": "address"
        }
      ],
      "name": "isStaking",
      "outputs": [
        {
          "internalType": "bool",
          "name": "",
          "type": "bool"
        }
      ],
      "stateMutability": "view",
      "type": "function",
      "constant": true
    },
    {
      "inputs": [],
      "name": "name",
      "outputs": [
        {
          "internalType": "string",
          "name": "",
          "type": "string"
        }
      ],
      "stateMutability": "view",
      "type": "function",
      "constant": true
    },
    {
      "inputs": [],
      "name": "owner",
      "outputs": [
        {
          "internalType": "address",
          "name": "",
          "type": "address"
        }
      ],
      "stateMutability": "view",
      "type": "function",
      "constant": true
    },
    {
      "inputs": [
        {
          "internalType": "uint256",
          "name": "",
          "type": "uint256"
        }
      ],
      "name": "stakers",
      "outputs": [
        {
          "internalType": "address",
          "name": "",
          "type": "address"
        }
      ],
      "stateMutability": "view",
      "type": "function",
      "constant": true
    },
    {
      "inputs": [
        {
          "internalType": "address",
          "name": "",
          "type": "address"
        }
      ],
      "name": "stakingBalance",
      "outputs": [
        {
          "internalType": "uint256",
          "name": "",
          "type": "uint256"
        }
      ],
      "stateMutability": "view",
      "type": "function",
      "constant": true
    },
    {
      "inputs": [],
      "name": "token",
      "outputs": [
        {
          "internalType": "contract Token",
          "name": "",
          "type": "address"
        }
      ],
      "stateMutability": "view",
      "type": "function",
      "constant": true
    },
    {
      "inputs": [
        {
          "internalType": "uint256",
          "name": "_ammount",
          "type": "uint256"
        }
      ],
      "name": "StakeTokens",
      "outputs": [],
      "stateMutability": "nonpayable",
      "type": "function"
    },
    {
      "inputs": [],
      "name": "unstakeTokens",
      "outputs": [],
      "stateMutability": "nonpayable",
      "type": "function"
    },
    {
      "inputs": [],
      "name": "issueToke",
      "outputs": [],
      "stateMutability": "nonpayable",
      "type": "function"
    }
  ],
  "bytecode": "0x60806040526040518060400160405280600a81526020017f546f6b656e204661726d00000000000000000000000000000000000000000000815250600090805190602001906200005192919062000150565b503480156200005f57600080fd5b5060405162001466380380620014668339818101604052810190620000859190620002c3565b81600160006101000a81548173ffffffffffffffffffffffffffffffffffffffff021916908373ffffffffffffffffffffffffffffffffffffffff16021790555080600260006101000a81548173ffffffffffffffffffffffffffffffffffffffff021916908373ffffffffffffffffffffffffffffffffffffffff16021790555033600460006101000a81548173ffffffffffffffffffffffffffffffffffffffff021916908373ffffffffffffffffffffffffffffffffffffffff16021790555050506200036f565b8280546200015e9062000339565b90600052602060002090601f016020900481019282620001825760008555620001ce565b82601f106200019d57805160ff1916838001178555620001ce565b82800160010185558215620001ce579182015b82811115620001cd578251825591602001919060010190620001b0565b5b509050620001dd9190620001e1565b5090565b5b80821115620001fc576000816000905550600101620001e2565b5090565b600080fd5b600073ffffffffffffffffffffffffffffffffffffffff82169050919050565b6000620002328262000205565b9050919050565b6000620002468262000225565b9050919050565b620002588162000239565b81146200026457600080fd5b50565b60008151905062000278816200024d565b92915050565b60006200028b8262000225565b9050919050565b6200029d816200027e565b8114620002a957600080fd5b50565b600081519050620002bd8162000292565b92915050565b60008060408385031215620002dd57620002dc62000200565b5b6000620002ed8582860162000267565b92505060206200030085828601620002ac565b9150509250929050565b7f4e487b7100000000000000000000000000000000000000000000000000000000600052602260045260246000fd5b600060028204905060018216806200035257607f821691505b602082108114156200036957620003686200030a565b5b50919050565b6110e7806200037f6000396000f3fe608060405234801561001057600080fd5b50600436106100a95760003560e01c8063a5ce413b11610071578063a5ce413b14610154578063be22f5461461015e578063c93c8f341461017c578063f3c756dc146101ac578063fc0c546a146101c8578063fd5e6dd1146101e6576100a9565b806306fdde03146100ae57806345bc78ab146100cc57806364028573146100fc5780636f49712b146101065780638da5cb5b14610136575b600080fd5b6100b6610216565b6040516100c39190610b01565b60405180910390f35b6100e660048036038101906100e19190610b86565b6102a4565b6040516100f39190610bcc565b60405180910390f35b6101046102bc565b005b610120600480360381019061011b9190610b86565b6104b5565b60405161012d9190610c02565b60405180910390f35b61013e6104d5565b60405161014b9190610c2c565b60405180910390f35b61015c6104fb565b005b6101666106d2565b6040516101739190610ca6565b60405180910390f35b61019660048036038101906101919190610b86565b6106f8565b6040516101a39190610c02565b60405180910390f35b6101c660048036038101906101c19190610ced565b610718565b005b6101d0610a03565b6040516101dd9190610d3b565b60405180910390f35b61020060048036038101906101fb9190610ced565b610a29565b60405161020d9190610c2c565b60405180910390f35b6000805461022390610d85565b80601f016020809104026020016040519081016040528092919081815260200182805461024f90610d85565b801561029c5780601f106102715761010080835404028352916020019161029c565b820191906000526020600020905b81548152906001019060200180831161027f57829003601f168201915b505050505081565b60056020528060005260406000206000915090505481565b600460009054906101000a900473ffffffffffffffffffffffffffffffffffffffff1673ffffffffffffffffffffffffffffffffffffffff163373ffffffffffffffffffffffffffffffffffffffff161461034c576040517f08c379a000000000000000000000000000000000000000000000000000000000815260040161034390610e03565b60405180910390fd5b60005b6003805490508110156104b25760006003828154811061037257610371610e23565b5b9060005260206000200160009054906101000a900473ffffffffffffffffffffffffffffffffffffffff1690506000600560008373ffffffffffffffffffffffffffffffffffffffff1673ffffffffffffffffffffffffffffffffffffffff168152602001908152602001600020549050600081111561049d57600160009054906101000a900473ffffffffffffffffffffffffffffffffffffffff1673ffffffffffffffffffffffffffffffffffffffff1663a9059cbb83836040518363ffffffff1660e01b8152600401610449929190610e52565b602060405180830381600087803b15801561046357600080fd5b505af1158015610477573d6000803e3d6000fd5b505050506040513d601f19601f8201168201806040525081019061049b9190610ea7565b505b505080806104aa90610f03565b91505061034f565b50565b60076020528060005260406000206000915054906101000a900460ff1681565b600460009054906101000a900473ffffffffffffffffffffffffffffffffffffffff1681565b6000600560003373ffffffffffffffffffffffffffffffffffffffff1673ffffffffffffffffffffffffffffffffffffffff16815260200190815260200160002054905060008111610582576040517f08c379a000000000000000000000000000000000000000000000000000000000815260040161057990610f98565b60405180910390fd5b600260009054906101000a900473ffffffffffffffffffffffffffffffffffffffff1673ffffffffffffffffffffffffffffffffffffffff1663a9059cbb33836040518363ffffffff1660e01b81526004016105df929190610e52565b602060405180830381600087803b1580156105f957600080fd5b505af115801561060d573d6000803e3d6000fd5b505050506040513d601f19601f820116820180604052508101906106319190610ea7565b506000600560003373ffffffffffffffffffffffffffffffffffffffff1673ffffffffffffffffffffffffffffffffffffffff168152602001908152602001600020819055506000600760003373ffffffffffffffffffffffffffffffffffffffff1673ffffffffffffffffffffffffffffffffffffffff16815260200190815260200160002060006101000a81548160ff02191690831515021790555050565b600260009054906101000a900473ffffffffffffffffffffffffffffffffffffffff1681565b60066020528060005260406000206000915054906101000a900460ff1681565b6000811161075b576040517f08c379a000000000000000000000000000000000000000000000000000000000815260040161075290611004565b60405180910390fd5b600260009054906101000a900473ffffffffffffffffffffffffffffffffffffffff1673ffffffffffffffffffffffffffffffffffffffff166323b872dd3330846040518463ffffffff1660e01b81526004016107ba93929190611024565b602060405180830381600087803b1580156107d457600080fd5b505af11580156107e8573d6000803e3d6000fd5b505050506040513d601f19601f8201168201806040525081019061080c9190610ea7565b5080600560003373ffffffffffffffffffffffffffffffffffffffff1673ffffffffffffffffffffffffffffffffffffffff16815260200190815260200160002054610858919061105b565b600560003373ffffffffffffffffffffffffffffffffffffffff1673ffffffffffffffffffffffffffffffffffffffff16815260200190815260200160002081905550600660003373ffffffffffffffffffffffffffffffffffffffff1673ffffffffffffffffffffffffffffffffffffffff16815260200190815260200160002060009054906101000a900460ff16610950576003339080600181540180825580915050600190039060005260206000200160009091909190916101000a81548173ffffffffffffffffffffffffffffffffffffffff021916908373ffffffffffffffffffffffffffffffffffffffff1602179055505b6001600660003373ffffffffffffffffffffffffffffffffffffffff1673ffffffffffffffffffffffffffffffffffffffff16815260200190815260200160002060006101000a81548160ff0219169083151502179055506001600760003373ffffffffffffffffffffffffffffffffffffffff1673ffffffffffffffffffffffffffffffffffffffff16815260200190815260200160002060006101000a81548160ff02191690831515021790555050565b600160009054906101000a900473ffffffffffffffffffffffffffffffffffffffff1681565b60038181548110610a3957600080fd5b906000526020600020016000915054906101000a900473ffffffffffffffffffffffffffffffffffffffff1681565b600081519050919050565b600082825260208201905092915050565b60005b83811015610aa2578082015181840152602081019050610a87565b83811115610ab1576000848401525b50505050565b6000601f19601f8301169050919050565b6000610ad382610a68565b610add8185610a73565b9350610aed818560208601610a84565b610af681610ab7565b840191505092915050565b60006020820190508181036000830152610b1b8184610ac8565b905092915050565b600080fd5b600073ffffffffffffffffffffffffffffffffffffffff82169050919050565b6000610b5382610b28565b9050919050565b610b6381610b48565b8114610b6e57600080fd5b50565b600081359050610b8081610b5a565b92915050565b600060208284031215610b9c57610b9b610b23565b5b6000610baa84828501610b71565b91505092915050565b6000819050919050565b610bc681610bb3565b82525050565b6000602082019050610be16000830184610bbd565b92915050565b60008115159050919050565b610bfc81610be7565b82525050565b6000602082019050610c176000830184610bf3565b92915050565b610c2681610b48565b82525050565b6000602082019050610c416000830184610c1d565b92915050565b6000819050919050565b6000610c6c610c67610c6284610b28565b610c47565b610b28565b9050919050565b6000610c7e82610c51565b9050919050565b6000610c9082610c73565b9050919050565b610ca081610c85565b82525050565b6000602082019050610cbb6000830184610c97565b92915050565b610cca81610bb3565b8114610cd557600080fd5b50565b600081359050610ce781610cc1565b92915050565b600060208284031215610d0357610d02610b23565b5b6000610d1184828501610cd8565b91505092915050565b6000610d2582610c73565b9050919050565b610d3581610d1a565b82525050565b6000602082019050610d506000830184610d2c565b92915050565b7f4e487b7100000000000000000000000000000000000000000000000000000000600052602260045260246000fd5b60006002820490506001821680610d9d57607f821691505b60208210811415610db157610db0610d56565b5b50919050565b7f63616c6c6572206d757374206265206f776e6572000000000000000000000000600082015250565b6000610ded601483610a73565b9150610df882610db7565b602082019050919050565b60006020820190508181036000830152610e1c81610de0565b9050919050565b7f4e487b7100000000000000000000000000000000000000000000000000000000600052603260045260246000fd5b6000604082019050610e676000830185610c1d565b610e746020830184610bbd565b9392505050565b610e8481610be7565b8114610e8f57600080fd5b50565b600081519050610ea181610e7b565b92915050565b600060208284031215610ebd57610ebc610b23565b5b6000610ecb84828501610e92565b91505092915050565b7f4e487b7100000000000000000000000000000000000000000000000000000000600052601160045260246000fd5b6000610f0e82610bb3565b91507fffffffffffffffffffffffffffffffffffffffffffffffffffffffffffffffff821415610f4157610f40610ed4565b5b600182019050919050565b7f5374616b696e672042616c616e63652043616e6e6f74206265205a65726f0000600082015250565b6000610f82601e83610a73565b9150610f8d82610f4c565b602082019050919050565b60006020820190508181036000830152610fb181610f75565b9050919050565b7f616d6d6f756e742063616e6e6f74206265207a65726f00000000000000000000600082015250565b6000610fee601683610a73565b9150610ff982610fb8565b602082019050919050565b6000602082019050818103600083015261101d81610fe1565b9050919050565b60006060820190506110396000830186610c1d565b6110466020830185610c1d565b6110536040830184610bbd565b949350505050565b600061106682610bb3565b915061107183610bb3565b9250827fffffffffffffffffffffffffffffffffffffffffffffffffffffffffffffffff038211156110a6576110a5610ed4565b5b82820190509291505056fea2646970667358221220de8c0a5a439b6f9a7f53002316d5e3ed0f309fea3f176f6439bc0a5f7044cd6a64736f6c63430008090033",
  "immutableReferences": {},
  "source": "pragma solidity ^0.8.0;\nimport \"./DaiToken.sol\";\nimport \"./Token.sol\";\n\ncontract TokenFarm { \n\nstring public name = \"Token Farm\";\nToken public token;\nDaiToken public daiToken;\naddress[] public stakers;  \naddress public owner;\nmapping(address => uint) public stakingBalance;\nmapping(address => bool) public hasStaked;\nmapping(address => bool) public isStaking;\n\n\nconstructor (Token _token , DaiToken _daiToken){\n                token  =_token;\n                daiToken = _daiToken;\n                owner = msg.sender;\n}\n\n\nfunction StakeTokens(uint _ammount) public {\n\n    require(_ammount > 0 ,\"ammount cannot be zero\");\n\n    daiToken.transferFrom(msg.sender,address(this), _ammount);\n    stakingBalance[msg.sender] = stakingBalance[msg.sender] + _ammount;\n            if(!hasStaked[msg.sender]){\n                    stakers.push(msg.sender); \n            }\n\n            hasStaked[msg.sender] = true;\n            isStaking[msg.sender] = true;\n    \n}\n\n\nfunction unstakeTokens() public {\n\n    uint balance = stakingBalance[msg.sender];\n    require(balance > 0 , \"Staking Balance Cannot be Zero\"); \n\n    daiToken.transfer(msg.sender, balance);\n\n    stakingBalance[msg.sender] = 0;\n\n    isStaking[msg.sender] = false;\n\n\n\n}\n\n\nfunction issueToke() public {\n        require(msg.sender == owner,\"caller must be owner\");\n\n        for(uint i=0 ; i<stakers.length; i++){\n            address receipant = stakers[i];\n            uint balance = stakingBalance[receipant];\n            if(balance > 0){\n                token.transfer(receipant, balance); \n            }\n\n        }\n}\n\n\n\n\n\n\n}",
  "sourcePath": "/Users/alitanveer/Desktop/Node/DappFeatures_Node.js_Web3/src/contracts/TokenFarm.sol",
  "compiler": {
    "name": "solc",
    "version": "0.8.9+commit.e5eed63a.Emscripten.clang"
  },
  "schemaVersion": "3.4.3",
  "updatedAt": "2021-10-07T11:05:27.594Z",
  "networkType": "ethereum",
  "devdoc": {
    "kind": "dev",
    "methods": {},
    "version": 1
  },
  "userdoc": {
    "kind": "user",
    "methods": {},
    "version": 1
  }
}