{
  "contractName": "UniqueAsset",
  "abi": [
    {
      "inputs": [],
      "stateMutability": "nonpayable",
      "type": "constructor"
    },
    {
      "anonymous": false,
      "inputs": [
        {
          "indexed": true,
          "internalType": "address",
          "name": "owner",
          "type": "address"
        },
        {
          "indexed": true,
          "internalType": "address",
          "name": "approved",
          "type": "address"
        },
        {
          "indexed": true,
          "internalType": "uint256",
          "name": "tokenId",
          "type": "uint256"
        }
      ],
      "name": "Approval",
      "type": "event"
    },
    {
      "anonymous": false,
      "inputs": [
        {
          "indexed": true,
          "internalType": "address",
          "name": "owner",
          "type": "address"
        },
        {
          "indexed": true,
          "internalType": "address",
          "name": "operator",
          "type": "address"
        },
        {
          "indexed": false,
          "internalType": "bool",
          "name": "approved",
          "type": "bool"
        }
      ],
      "name": "ApprovalForAll",
      "type": "event"
    },
    {
      "anonymous": false,
      "inputs": [
        {
          "indexed": true,
          "internalType": "address",
          "name": "from",
          "type": "address"
        },
        {
          "indexed": true,
          "internalType": "address",
          "name": "to",
          "type": "address"
        },
        {
          "indexed": true,
          "internalType": "uint256",
          "name": "tokenId",
          "type": "uint256"
        }
      ],
      "name": "Transfer",
      "type": "event"
    },
    {
      "inputs": [
        {
          "internalType": "string",
          "name": "",
          "type": "string"
        }
      ],
      "name": "_hashExists",
      "outputs": [
        {
          "internalType": "bool",
          "name": "",
          "type": "bool"
        }
      ],
      "stateMutability": "view",
      "type": "function",
      "constant": true
    },
    {
      "inputs": [
        {
          "internalType": "address",
          "name": "to",
          "type": "address"
        },
        {
          "internalType": "uint256",
          "name": "tokenId",
          "type": "uint256"
        }
      ],
      "name": "approve",
      "outputs": [],
      "stateMutability": "nonpayable",
      "type": "function"
    },
    {
      "inputs": [
        {
          "internalType": "address",
          "name": "owner",
          "type": "address"
        }
      ],
      "name": "balanceOf",
      "outputs": [
        {
          "internalType": "uint256",
          "name": "",
          "type": "uint256"
        }
      ],
      "stateMutability": "view",
      "type": "function",
      "constant": true
    },
    {
      "inputs": [
        {
          "internalType": "uint256",
          "name": "tokenId",
          "type": "uint256"
        }
      ],
      "name": "getApproved",
      "outputs": [
        {
          "internalType": "address",
          "name": "",
          "type": "address"
        }
      ],
      "stateMutability": "view",
      "type": "function",
      "constant": true
    },
    {
      "inputs": [
        {
          "internalType": "uint256",
          "name": "",
          "type": "uint256"
        }
      ],
      "name": "hashes",
      "outputs": [
        {
          "internalType": "string",
          "name": "",
          "type": "string"
        }
      ],
      "stateMutability": "view",
      "type": "function",
      "constant": true
    },
    {
      "inputs": [
        {
          "internalType": "address",
          "name": "owner",
          "type": "address"
        },
        {
          "internalType": "address",
          "name": "operator",
          "type": "address"
        }
      ],
      "name": "isApprovedForAll",
      "outputs": [
        {
          "internalType": "bool",
          "name": "",
          "type": "bool"
        }
      ],
      "stateMutability": "view",
      "type": "function",
      "constant": true
    },
    {
      "inputs": [],
      "name": "name",
      "outputs": [
        {
          "internalType": "string",
          "name": "",
          "type": "string"
        }
      ],
      "stateMutability": "view",
      "type": "function",
      "constant": true
    },
    {
      "inputs": [
        {
          "internalType": "uint256",
          "name": "tokenId",
          "type": "uint256"
        }
      ],
      "name": "ownerOf",
      "outputs": [
        {
          "internalType": "address",
          "name": "",
          "type": "address"
        }
      ],
      "stateMutability": "view",
      "type": "function",
      "constant": true
    },
    {
      "inputs": [
        {
          "internalType": "address",
          "name": "from",
          "type": "address"
        },
        {
          "internalType": "address",
          "name": "to",
          "type": "address"
        },
        {
          "internalType": "uint256",
          "name": "tokenId",
          "type": "uint256"
        }
      ],
      "name": "safeTransferFrom",
      "outputs": [],
      "stateMutability": "nonpayable",
      "type": "function"
    },
    {
      "inputs": [
        {
          "internalType": "address",
          "name": "from",
          "type": "address"
        },
        {
          "internalType": "address",
          "name": "to",
          "type": "address"
        },
        {
          "internalType": "uint256",
          "name": "tokenId",
          "type": "uint256"
        },
        {
          "internalType": "bytes",
          "name": "_data",
          "type": "bytes"
        }
      ],
      "name": "safeTransferFrom",
      "outputs": [],
      "stateMutability": "nonpayable",
      "type": "function"
    },
    {
      "inputs": [
        {
          "internalType": "address",
          "name": "operator",
          "type": "address"
        },
        {
          "internalType": "bool",
          "name": "approved",
          "type": "bool"
        }
      ],
      "name": "setApprovalForAll",
      "outputs": [],
      "stateMutability": "nonpayable",
      "type": "function"
    },
    {
      "inputs": [
        {
          "internalType": "bytes4",
          "name": "interfaceId",
          "type": "bytes4"
        }
      ],
      "name": "supportsInterface",
      "outputs": [
        {
          "internalType": "bool",
          "name": "",
          "type": "bool"
        }
      ],
      "stateMutability": "view",
      "type": "function",
      "constant": true
    },
    {
      "inputs": [],
      "name": "symbol",
      "outputs": [
        {
          "internalType": "string",
          "name": "",
          "type": "string"
        }
      ],
      "stateMutability": "view",
      "type": "function",
      "constant": true
    },
    {
      "inputs": [
        {
          "internalType": "uint256",
          "name": "index",
          "type": "uint256"
        }
      ],
      "name": "tokenByIndex",
      "outputs": [
        {
          "internalType": "uint256",
          "name": "",
          "type": "uint256"
        }
      ],
      "stateMutability": "view",
      "type": "function",
      "constant": true
    },
    {
      "inputs": [
        {
          "internalType": "address",
          "name": "owner",
          "type": "address"
        },
        {
          "internalType": "uint256",
          "name": "index",
          "type": "uint256"
        }
      ],
      "name": "tokenOfOwnerByIndex",
      "outputs": [
        {
          "internalType": "uint256",
          "name": "",
          "type": "uint256"
        }
      ],
      "stateMutability": "view",
      "type": "function",
      "constant": true
    },
    {
      "inputs": [
        {
          "internalType": "uint256",
          "name": "tokenId",
          "type": "uint256"
        }
      ],
      "name": "tokenURI",
      "outputs": [
        {
          "internalType": "string",
          "name": "",
          "type": "string"
        }
      ],
      "stateMutability": "view",
      "type": "function",
      "constant": true
    },
    {
      "inputs": [],
      "name": "totalSupply",
      "outputs": [
        {
          "internalType": "uint256",
          "name": "",
          "type": "uint256"
        }
      ],
      "stateMutability": "view",
      "type": "function",
      "constant": true
    },
    {
      "inputs": [
        {
          "internalType": "address",
          "name": "from",
          "type": "address"
        },
        {
          "internalType": "address",
          "name": "to",
          "type": "address"
        },
        {
          "internalType": "uint256",
          "name": "tokenId",
          "type": "uint256"
        }
      ],
      "name": "transferFrom",
      "outputs": [],
      "stateMutability": "nonpayable",
      "type": "function"
    },
    {
      "inputs": [
        {
          "internalType": "string",
          "name": "_hash",
          "type": "string"
        }
      ],
      "name": "mint",
      "outputs": [],
      "stateMutability": "nonpayable",
      "type": "function"
    }
  ],
  "bytecode": "0x60806040523480156200001157600080fd5b506040518060400160405280600b81526020017f556e6971756541737365740000000000000000000000000000000000000000008152506040518060400160405280600381526020017f554e410000000000000000000000000000000000000000000000000000000000815250816000908051906020019062000096929190620000b8565b508060019080519060200190620000af929190620000b8565b505050620001cd565b828054620000c69062000197565b90600052602060002090601f016020900481019282620000ea576000855562000136565b82601f106200010557805160ff191683800117855562000136565b8280016001018555821562000136579182015b828111156200013557825182559160200191906001019062000118565b5b50905062000145919062000149565b5090565b5b80821115620001645760008160009055506001016200014a565b5090565b7f4e487b7100000000000000000000000000000000000000000000000000000000600052602260045260246000fd5b60006002820490506001821680620001b057607f821691505b60208210811415620001c757620001c662000168565b5b50919050565b61321b80620001dd6000396000f3fe608060405234801561001057600080fd5b50600436106101215760003560e01c8063501895ae116100ad578063b88d4fde11610071578063b88d4fde14610340578063c87b56dd1461035c578063d85d3d271461038c578063e985e9c5146103a8578063eaf0027f146103d857610121565b8063501895ae146102765780636352211e146102a657806370a08231146102d657806395d89b4114610306578063a22cb4651461032457610121565b806318160ddd116100f457806318160ddd146101c057806323b872dd146101de5780632f745c59146101fa57806342842e0e1461022a5780634f6ccce71461024657610121565b806301ffc9a71461012657806306fdde0314610156578063081812fc14610174578063095ea7b3146101a4575b600080fd5b610140600480360381019061013b9190611f4a565b610408565b60405161014d9190611f92565b60405180910390f35b61015e610482565b60405161016b9190612046565b60405180910390f35b61018e6004803603810190610189919061209e565b610514565b60405161019b919061210c565b60405180910390f35b6101be60048036038101906101b99190612153565b610599565b005b6101c86106b1565b6040516101d591906121a2565b60405180910390f35b6101f860048036038101906101f391906121bd565b6106be565b005b610214600480360381019061020f9190612153565b61071e565b60405161022191906121a2565b60405180910390f35b610244600480360381019061023f91906121bd565b6107c3565b005b610260600480360381019061025b919061209e565b6107e3565b60405161026d91906121a2565b60405180910390f35b610290600480360381019061028b919061209e565b610854565b60405161029d9190612046565b60405180910390f35b6102c060048036038101906102bb919061209e565b610900565b6040516102cd919061210c565b60405180910390f35b6102f060048036038101906102eb9190612210565b6109b2565b6040516102fd91906121a2565b60405180910390f35b61030e610a6a565b60405161031b9190612046565b60405180910390f35b61033e60048036038101906103399190612269565b610afc565b005b61035a600480360381019061035591906123de565b610c7d565b005b6103766004803603810190610371919061209e565b610cdf565b6040516103839190612046565b60405180910390f35b6103a660048036038101906103a19190612502565b610d86565b005b6103c260048036038101906103bd919061254b565b610e53565b6040516103cf9190611f92565b60405180910390f35b6103f260048036038101906103ed9190612502565b610ee7565b6040516103ff9190611f92565b60405180910390f35b60007f780e9d63000000000000000000000000000000000000000000000000000000007bffffffffffffffffffffffffffffffffffffffffffffffffffffffff1916827bffffffffffffffffffffffffffffffffffffffffffffffffffffffff1916148061047b575061047a82610f1d565b5b9050919050565b606060008054610491906125ba565b80601f01602080910402602001604051908101604052809291908181526020018280546104bd906125ba565b801561050a5780601f106104df5761010080835404028352916020019161050a565b820191906000526020600020905b8154815290600101906020018083116104ed57829003601f168201915b5050505050905090565b600061051f82610fff565b61055e576040517f08c379a00000000000000000000000000000000000000000000000000000000081526004016105559061265e565b60405180910390fd5b6004600083815260200190815260200160002060009054906101000a900473ffffffffffffffffffffffffffffffffffffffff169050919050565b60006105a482610900565b90508073ffffffffffffffffffffffffffffffffffffffff168373ffffffffffffffffffffffffffffffffffffffff161415610615576040517f08c379a000000000000000000000000000000000000000000000000000000000815260040161060c906126f0565b60405180910390fd5b8073ffffffffffffffffffffffffffffffffffffffff1661063461106b565b73ffffffffffffffffffffffffffffffffffffffff16148061066357506106628161065d61106b565b610e53565b5b6106a2576040517f08c379a000000000000000000000000000000000000000000000000000000000815260040161069990612782565b60405180910390fd5b6106ac8383611073565b505050565b6000600880549050905090565b6106cf6106c961106b565b8261112c565b61070e576040517f08c379a000000000000000000000000000000000000000000000000000000000815260040161070590612814565b60405180910390fd5b61071983838361120a565b505050565b6000610729836109b2565b821061076a576040517f08c379a0000000000000000000000000000000000000000000000000000000008152600401610761906128a6565b60405180910390fd5b600660008473ffffffffffffffffffffffffffffffffffffffff1673ffffffffffffffffffffffffffffffffffffffff168152602001908152602001600020600083815260200190815260200160002054905092915050565b6107de83838360405180602001604052806000815250610c7d565b505050565b60006107ed6106b1565b821061082e576040517f08c379a000000000000000000000000000000000000000000000000000000000815260040161082590612938565b60405180910390fd5b6008828154811061084257610841612958565b5b90600052602060002001549050919050565b600a818154811061086457600080fd5b90600052602060002001600091509050805461087f906125ba565b80601f01602080910402602001604051908101604052809291908181526020018280546108ab906125ba565b80156108f85780601f106108cd576101008083540402835291602001916108f8565b820191906000526020600020905b8154815290600101906020018083116108db57829003601f168201915b505050505081565b6000806002600084815260200190815260200160002060009054906101000a900473ffffffffffffffffffffffffffffffffffffffff169050600073ffffffffffffffffffffffffffffffffffffffff168173ffffffffffffffffffffffffffffffffffffffff1614156109a9576040517f08c379a00000000000000000000000000000000000000000000000000000000081526004016109a0906129f9565b60405180910390fd5b80915050919050565b60008073ffffffffffffffffffffffffffffffffffffffff168273ffffffffffffffffffffffffffffffffffffffff161415610a23576040517f08c379a0000000000000000000000000000000000000000000000000000000008152600401610a1a90612a8b565b60405180910390fd5b600360008373ffffffffffffffffffffffffffffffffffffffff1673ffffffffffffffffffffffffffffffffffffffff168152602001908152602001600020549050919050565b606060018054610a79906125ba565b80601f0160208091040260200160405190810160405280929190818152602001828054610aa5906125ba565b8015610af25780601f10610ac757610100808354040283529160200191610af2565b820191906000526020600020905b815481529060010190602001808311610ad557829003601f168201915b5050505050905090565b610b0461106b565b73ffffffffffffffffffffffffffffffffffffffff168273ffffffffffffffffffffffffffffffffffffffff161415610b72576040517f08c379a0000000000000000000000000000000000000000000000000000000008152600401610b6990612af7565b60405180910390fd5b8060056000610b7f61106b565b73ffffffffffffffffffffffffffffffffffffffff1673ffffffffffffffffffffffffffffffffffffffff16815260200190815260200160002060008473ffffffffffffffffffffffffffffffffffffffff1673ffffffffffffffffffffffffffffffffffffffff16815260200190815260200160002060006101000a81548160ff0219169083151502179055508173ffffffffffffffffffffffffffffffffffffffff16610c2c61106b565b73ffffffffffffffffffffffffffffffffffffffff167f17307eab39ab6107e8899845ad3d59bd9653f200f220920489ca2b5937696c3183604051610c719190611f92565b60405180910390a35050565b610c8e610c8861106b565b8361112c565b610ccd576040517f08c379a0000000000000000000000000000000000000000000000000000000008152600401610cc490612814565b60405180910390fd5b610cd984848484611466565b50505050565b6060610cea82610fff565b610d29576040517f08c379a0000000000000000000000000000000000000000000000000000000008152600401610d2090612b89565b60405180910390fd5b6000610d336114c2565b90506000815111610d535760405180602001604052806000815250610d7e565b80610d5d846114d9565b604051602001610d6e929190612be5565b6040516020818303038152906040525b915050919050565b600b81604051610d969190612c09565b908152602001604051809103902060009054906101000a900460ff1615610dbc57600080fd5b600a81908060018154018082558091505060019003906000526020600020016000909190919091509080519060200190610df7929190611e3b565b5060006001600a80549050610e0c9190612c4f565b9050610e18338261163a565b6001600b83604051610e2a9190612c09565b908152602001604051809103902060006101000a81548160ff0219169083151502179055505050565b6000600560008473ffffffffffffffffffffffffffffffffffffffff1673ffffffffffffffffffffffffffffffffffffffff16815260200190815260200160002060008373ffffffffffffffffffffffffffffffffffffffff1673ffffffffffffffffffffffffffffffffffffffff16815260200190815260200160002060009054906101000a900460ff16905092915050565b600b818051602081018201805184825260208301602085012081835280955050505050506000915054906101000a900460ff1681565b60007f80ac58cd000000000000000000000000000000000000000000000000000000007bffffffffffffffffffffffffffffffffffffffffffffffffffffffff1916827bffffffffffffffffffffffffffffffffffffffffffffffffffffffff19161480610fe857507f5b5e139f000000000000000000000000000000000000000000000000000000007bffffffffffffffffffffffffffffffffffffffffffffffffffffffff1916827bffffffffffffffffffffffffffffffffffffffffffffffffffffffff1916145b80610ff85750610ff782611808565b5b9050919050565b60008073ffffffffffffffffffffffffffffffffffffffff166002600084815260200190815260200160002060009054906101000a900473ffffffffffffffffffffffffffffffffffffffff1673ffffffffffffffffffffffffffffffffffffffff1614159050919050565b600033905090565b816004600083815260200190815260200160002060006101000a81548173ffffffffffffffffffffffffffffffffffffffff021916908373ffffffffffffffffffffffffffffffffffffffff160217905550808273ffffffffffffffffffffffffffffffffffffffff166110e683610900565b73ffffffffffffffffffffffffffffffffffffffff167f8c5be1e5ebec7d5bd14f71427d1e84f3dd0314c0f7b2291e5b200ac8c7c3b92560405160405180910390a45050565b600061113782610fff565b611176576040517f08c379a000000000000000000000000000000000000000000000000000000000815260040161116d90612cf5565b60405180910390fd5b600061118183610900565b90508073ffffffffffffffffffffffffffffffffffffffff168473ffffffffffffffffffffffffffffffffffffffff1614806111f057508373ffffffffffffffffffffffffffffffffffffffff166111d884610514565b73ffffffffffffffffffffffffffffffffffffffff16145b8061120157506112008185610e53565b5b91505092915050565b8273ffffffffffffffffffffffffffffffffffffffff1661122a82610900565b73ffffffffffffffffffffffffffffffffffffffff1614611280576040517f08c379a000000000000000000000000000000000000000000000000000000000815260040161127790612d87565b60405180910390fd5b600073ffffffffffffffffffffffffffffffffffffffff168273ffffffffffffffffffffffffffffffffffffffff1614156112f0576040517f08c379a00000000000000000000000000000000000000000000000000000000081526004016112e790612e19565b60405180910390fd5b6112fb838383611872565b611306600082611073565b6001600360008573ffffffffffffffffffffffffffffffffffffffff1673ffffffffffffffffffffffffffffffffffffffff16815260200190815260200160002060008282546113569190612c4f565b925050819055506001600360008473ffffffffffffffffffffffffffffffffffffffff1673ffffffffffffffffffffffffffffffffffffffff16815260200190815260200160002060008282546113ad9190612e39565b92505081905550816002600083815260200190815260200160002060006101000a81548173ffffffffffffffffffffffffffffffffffffffff021916908373ffffffffffffffffffffffffffffffffffffffff160217905550808273ffffffffffffffffffffffffffffffffffffffff168473ffffffffffffffffffffffffffffffffffffffff167fddf252ad1be2c89b69c2b068fc378daa952ba7f163c4a11628f55a4df523b3ef60405160405180910390a4505050565b61147184848461120a565b61147d84848484611986565b6114bc576040517f08c379a00000000000000000000000000000000000000000000000000000000081526004016114b390612f01565b60405180910390fd5b50505050565b606060405180602001604052806000815250905090565b60606000821415611521576040518060400160405280600181526020017f30000000000000000000000000000000000000000000000000000000000000008152509050611635565b600082905060005b6000821461155357808061153c90612f21565b915050600a8261154c9190612f99565b9150611529565b60008167ffffffffffffffff81111561156f5761156e6122b3565b5b6040519080825280601f01601f1916602001820160405280156115a15781602001600182028036833780820191505090505b5090505b6000851461162e576001826115ba9190612c4f565b9150600a856115c99190612fca565b60306115d59190612e39565b60f81b8183815181106115eb576115ea612958565b5b60200101907effffffffffffffffffffffffffffffffffffffffffffffffffffffffffffff1916908160001a905350600a856116279190612f99565b94506115a5565b8093505050505b919050565b600073ffffffffffffffffffffffffffffffffffffffff168273ffffffffffffffffffffffffffffffffffffffff1614156116aa576040517f08c379a00000000000000000000000000000000000000000000000000000000081526004016116a190613047565b60405180910390fd5b6116b381610fff565b156116f3576040517f08c379a00000000000000000000000000000000000000000000000000000000081526004016116ea906130b3565b60405180910390fd5b6116ff60008383611872565b6001600360008473ffffffffffffffffffffffffffffffffffffffff1673ffffffffffffffffffffffffffffffffffffffff168152602001908152602001600020600082825461174f9190612e39565b92505081905550816002600083815260200190815260200160002060006101000a81548173ffffffffffffffffffffffffffffffffffffffff021916908373ffffffffffffffffffffffffffffffffffffffff160217905550808273ffffffffffffffffffffffffffffffffffffffff16600073ffffffffffffffffffffffffffffffffffffffff167fddf252ad1be2c89b69c2b068fc378daa952ba7f163c4a11628f55a4df523b3ef60405160405180910390a45050565b60007f01ffc9a7000000000000000000000000000000000000000000000000000000007bffffffffffffffffffffffffffffffffffffffffffffffffffffffff1916827bffffffffffffffffffffffffffffffffffffffffffffffffffffffff1916149050919050565b61187d838383611b1d565b600073ffffffffffffffffffffffffffffffffffffffff168373ffffffffffffffffffffffffffffffffffffffff1614156118c0576118bb81611b22565b6118ff565b8173ffffffffffffffffffffffffffffffffffffffff168373ffffffffffffffffffffffffffffffffffffffff16146118fe576118fd8382611b6b565b5b5b600073ffffffffffffffffffffffffffffffffffffffff168273ffffffffffffffffffffffffffffffffffffffff1614156119425761193d81611cd8565b611981565b8273ffffffffffffffffffffffffffffffffffffffff168273ffffffffffffffffffffffffffffffffffffffff16146119805761197f8282611da9565b5b5b505050565b60006119a78473ffffffffffffffffffffffffffffffffffffffff16611e28565b15611b10578373ffffffffffffffffffffffffffffffffffffffff1663150b7a026119d061106b565b8786866040518563ffffffff1660e01b81526004016119f29493929190613128565b602060405180830381600087803b158015611a0c57600080fd5b505af1925050508015611a3d57506040513d601f19601f82011682018060405250810190611a3a9190613189565b60015b611ac0573d8060008114611a6d576040519150601f19603f3d011682016040523d82523d6000602084013e611a72565b606091505b50600081511415611ab8576040517f08c379a0000000000000000000000000000000000000000000000000000000008152600401611aaf90612f01565b60405180910390fd5b805181602001fd5b63150b7a0260e01b7bffffffffffffffffffffffffffffffffffffffffffffffffffffffff1916817bffffffffffffffffffffffffffffffffffffffffffffffffffffffff191614915050611b15565b600190505b949350505050565b505050565b6008805490506009600083815260200190815260200160002081905550600881908060018154018082558091505060019003906000526020600020016000909190919091505550565b60006001611b78846109b2565b611b829190612c4f565b9050600060076000848152602001908152602001600020549050818114611c67576000600660008673ffffffffffffffffffffffffffffffffffffffff1673ffffffffffffffffffffffffffffffffffffffff168152602001908152602001600020600084815260200190815260200160002054905080600660008773ffffffffffffffffffffffffffffffffffffffff1673ffffffffffffffffffffffffffffffffffffffff168152602001908152602001600020600084815260200190815260200160002081905550816007600083815260200190815260200160002081905550505b6007600084815260200190815260200160002060009055600660008573ffffffffffffffffffffffffffffffffffffffff1673ffffffffffffffffffffffffffffffffffffffff16815260200190815260200160002060008381526020019081526020016000206000905550505050565b60006001600880549050611cec9190612c4f565b9050600060096000848152602001908152602001600020549050600060088381548110611d1c57611d1b612958565b5b906000526020600020015490508060088381548110611d3e57611d3d612958565b5b906000526020600020018190555081600960008381526020019081526020016000208190555060096000858152602001908152602001600020600090556008805480611d8d57611d8c6131b6565b5b6001900381819060005260206000200160009055905550505050565b6000611db4836109b2565b905081600660008573ffffffffffffffffffffffffffffffffffffffff1673ffffffffffffffffffffffffffffffffffffffff168152602001908152602001600020600083815260200190815260200160002081905550806007600084815260200190815260200160002081905550505050565b600080823b905060008111915050919050565b828054611e47906125ba565b90600052602060002090601f016020900481019282611e695760008555611eb0565b82601f10611e8257805160ff1916838001178555611eb0565b82800160010185558215611eb0579182015b82811115611eaf578251825591602001919060010190611e94565b5b509050611ebd9190611ec1565b5090565b5b80821115611eda576000816000905550600101611ec2565b5090565b6000604051905090565b600080fd5b600080fd5b60007fffffffff0000000000000000000000000000000000000000000000000000000082169050919050565b611f2781611ef2565b8114611f3257600080fd5b50565b600081359050611f4481611f1e565b92915050565b600060208284031215611f6057611f5f611ee8565b5b6000611f6e84828501611f35565b91505092915050565b60008115159050919050565b611f8c81611f77565b82525050565b6000602082019050611fa76000830184611f83565b92915050565b600081519050919050565b600082825260208201905092915050565b60005b83811015611fe7578082015181840152602081019050611fcc565b83811115611ff6576000848401525b50505050565b6000601f19601f8301169050919050565b600061201882611fad565b6120228185611fb8565b9350612032818560208601611fc9565b61203b81611ffc565b840191505092915050565b60006020820190508181036000830152612060818461200d565b905092915050565b6000819050919050565b61207b81612068565b811461208657600080fd5b50565b60008135905061209881612072565b92915050565b6000602082840312156120b4576120b3611ee8565b5b60006120c284828501612089565b91505092915050565b600073ffffffffffffffffffffffffffffffffffffffff82169050919050565b60006120f6826120cb565b9050919050565b612106816120eb565b82525050565b600060208201905061212160008301846120fd565b92915050565b612130816120eb565b811461213b57600080fd5b50565b60008135905061214d81612127565b92915050565b6000806040838503121561216a57612169611ee8565b5b60006121788582860161213e565b925050602061218985828601612089565b9150509250929050565b61219c81612068565b82525050565b60006020820190506121b76000830184612193565b92915050565b6000806000606084860312156121d6576121d5611ee8565b5b60006121e48682870161213e565b93505060206121f58682870161213e565b925050604061220686828701612089565b9150509250925092565b60006020828403121561222657612225611ee8565b5b60006122348482850161213e565b91505092915050565b61224681611f77565b811461225157600080fd5b50565b6000813590506122638161223d565b92915050565b600080604083850312156122805761227f611ee8565b5b600061228e8582860161213e565b925050602061229f85828601612254565b9150509250929050565b600080fd5b600080fd5b7f4e487b7100000000000000000000000000000000000000000000000000000000600052604160045260246000fd5b6122eb82611ffc565b810181811067ffffffffffffffff8211171561230a576123096122b3565b5b80604052505050565b600061231d611ede565b905061232982826122e2565b919050565b600067ffffffffffffffff821115612349576123486122b3565b5b61235282611ffc565b9050602081019050919050565b82818337600083830152505050565b600061238161237c8461232e565b612313565b90508281526020810184848401111561239d5761239c6122ae565b5b6123a884828561235f565b509392505050565b600082601f8301126123c5576123c46122a9565b5b81356123d584826020860161236e565b91505092915050565b600080600080608085870312156123f8576123f7611ee8565b5b60006124068782880161213e565b94505060206124178782880161213e565b935050604061242887828801612089565b925050606085013567ffffffffffffffff81111561244957612448611eed565b5b612455878288016123b0565b91505092959194509250565b600067ffffffffffffffff82111561247c5761247b6122b3565b5b61248582611ffc565b9050602081019050919050565b60006124a56124a084612461565b612313565b9050828152602081018484840111156124c1576124c06122ae565b5b6124cc84828561235f565b509392505050565b600082601f8301126124e9576124e86122a9565b5b81356124f9848260208601612492565b91505092915050565b60006020828403121561251857612517611ee8565b5b600082013567ffffffffffffffff81111561253657612535611eed565b5b612542848285016124d4565b91505092915050565b6000806040838503121561256257612561611ee8565b5b60006125708582860161213e565b92505060206125818582860161213e565b9150509250929050565b7f4e487b7100000000000000000000000000000000000000000000000000000000600052602260045260246000fd5b600060028204905060018216806125d257607f821691505b602082108114156125e6576125e561258b565b5b50919050565b7f4552433732313a20617070726f76656420717565727920666f72206e6f6e657860008201527f697374656e7420746f6b656e0000000000000000000000000000000000000000602082015250565b6000612648602c83611fb8565b9150612653826125ec565b604082019050919050565b600060208201905081810360008301526126778161263b565b9050919050565b7f4552433732313a20617070726f76616c20746f2063757272656e74206f776e6560008201527f7200000000000000000000000000000000000000000000000000000000000000602082015250565b60006126da602183611fb8565b91506126e58261267e565b604082019050919050565b60006020820190508181036000830152612709816126cd565b9050919050565b7f4552433732313a20617070726f76652063616c6c6572206973206e6f74206f7760008201527f6e6572206e6f7220617070726f76656420666f7220616c6c0000000000000000602082015250565b600061276c603883611fb8565b915061277782612710565b604082019050919050565b6000602082019050818103600083015261279b8161275f565b9050919050565b7f4552433732313a207472616e736665722063616c6c6572206973206e6f74206f60008201527f776e6572206e6f7220617070726f766564000000000000000000000000000000602082015250565b60006127fe603183611fb8565b9150612809826127a2565b604082019050919050565b6000602082019050818103600083015261282d816127f1565b9050919050565b7f455243373231456e756d657261626c653a206f776e657220696e646578206f7560008201527f74206f6620626f756e6473000000000000000000000000000000000000000000602082015250565b6000612890602b83611fb8565b915061289b82612834565b604082019050919050565b600060208201905081810360008301526128bf81612883565b9050919050565b7f455243373231456e756d657261626c653a20676c6f62616c20696e646578206f60008201527f7574206f6620626f756e64730000000000000000000000000000000000000000602082015250565b6000612922602c83611fb8565b915061292d826128c6565b604082019050919050565b6000602082019050818103600083015261295181612915565b9050919050565b7f4e487b7100000000000000000000000000000000000000000000000000000000600052603260045260246000fd5b7f4552433732313a206f776e657220717565727920666f72206e6f6e657869737460008201527f656e7420746f6b656e0000000000000000000000000000000000000000000000602082015250565b60006129e3602983611fb8565b91506129ee82612987565b604082019050919050565b60006020820190508181036000830152612a12816129d6565b9050919050565b7f4552433732313a2062616c616e636520717565727920666f7220746865207a6560008201527f726f206164647265737300000000000000000000000000000000000000000000602082015250565b6000612a75602a83611fb8565b9150612a8082612a19565b604082019050919050565b60006020820190508181036000830152612aa481612a68565b9050919050565b7f4552433732313a20617070726f766520746f2063616c6c657200000000000000600082015250565b6000612ae1601983611fb8565b9150612aec82612aab565b602082019050919050565b60006020820190508181036000830152612b1081612ad4565b9050919050565b7f4552433732314d657461646174613a2055524920717565727920666f72206e6f60008201527f6e6578697374656e7420746f6b656e0000000000000000000000000000000000602082015250565b6000612b73602f83611fb8565b9150612b7e82612b17565b604082019050919050565b60006020820190508181036000830152612ba281612b66565b9050919050565b600081905092915050565b6000612bbf82611fad565b612bc98185612ba9565b9350612bd9818560208601611fc9565b80840191505092915050565b6000612bf18285612bb4565b9150612bfd8284612bb4565b91508190509392505050565b6000612c158284612bb4565b915081905092915050565b7f4e487b7100000000000000000000000000000000000000000000000000000000600052601160045260246000fd5b6000612c5a82612068565b9150612c6583612068565b925082821015612c7857612c77612c20565b5b828203905092915050565b7f4552433732313a206f70657261746f7220717565727920666f72206e6f6e657860008201527f697374656e7420746f6b656e0000000000000000000000000000000000000000602082015250565b6000612cdf602c83611fb8565b9150612cea82612c83565b604082019050919050565b60006020820190508181036000830152612d0e81612cd2565b9050919050565b7f4552433732313a207472616e73666572206f6620746f6b656e2074686174206960008201527f73206e6f74206f776e0000000000000000000000000000000000000000000000602082015250565b6000612d71602983611fb8565b9150612d7c82612d15565b604082019050919050565b60006020820190508181036000830152612da081612d64565b9050919050565b7f4552433732313a207472616e7366657220746f20746865207a65726f2061646460008201527f7265737300000000000000000000000000000000000000000000000000000000602082015250565b6000612e03602483611fb8565b9150612e0e82612da7565b604082019050919050565b60006020820190508181036000830152612e3281612df6565b9050919050565b6000612e4482612068565b9150612e4f83612068565b9250827fffffffffffffffffffffffffffffffffffffffffffffffffffffffffffffffff03821115612e8457612e83612c20565b5b828201905092915050565b7f4552433732313a207472616e7366657220746f206e6f6e20455243373231526560008201527f63656976657220696d706c656d656e7465720000000000000000000000000000602082015250565b6000612eeb603283611fb8565b9150612ef682612e8f565b604082019050919050565b60006020820190508181036000830152612f1a81612ede565b9050919050565b6000612f2c82612068565b91507fffffffffffffffffffffffffffffffffffffffffffffffffffffffffffffffff821415612f5f57612f5e612c20565b5b600182019050919050565b7f4e487b7100000000000000000000000000000000000000000000000000000000600052601260045260246000fd5b6000612fa482612068565b9150612faf83612068565b925082612fbf57612fbe612f6a565b5b828204905092915050565b6000612fd582612068565b9150612fe083612068565b925082612ff057612fef612f6a565b5b828206905092915050565b7f4552433732313a206d696e7420746f20746865207a65726f2061646472657373600082015250565b6000613031602083611fb8565b915061303c82612ffb565b602082019050919050565b6000602082019050818103600083015261306081613024565b9050919050565b7f4552433732313a20746f6b656e20616c7265616479206d696e74656400000000600082015250565b600061309d601c83611fb8565b91506130a882613067565b602082019050919050565b600060208201905081810360008301526130cc81613090565b9050919050565b600081519050919050565b600082825260208201905092915050565b60006130fa826130d3565b61310481856130de565b9350613114818560208601611fc9565b61311d81611ffc565b840191505092915050565b600060808201905061313d60008301876120fd565b61314a60208301866120fd565b6131576040830185612193565b818103606083015261316981846130ef565b905095945050505050565b60008151905061318381611f1e565b92915050565b60006020828403121561319f5761319e611ee8565b5b60006131ad84828501613174565b91505092915050565b7f4e487b7100000000000000000000000000000000000000000000000000000000600052603160045260246000fdfea2646970667358221220ea677c2ada3e0e56f745b975c1b4bf0988a9367ba8fd8f69cae6ff3eb0da43ff64736f6c63430008090033",
  "immutableReferences": {},
  "source": "\npragma solidity ^0.8.0;\n\n\nimport \"@openzeppelin/contracts/token/ERC721/ERC721.sol\";\nimport \"@openzeppelin/contracts/utils/Counters.sol\";\nimport \"@openzeppelin/contracts/token/ERC721/extensions/ERC721Enumerable.sol\";\n\n\ncontract UniqueAsset is ERC721Enumerable{\n\n\n    string[] public hashes;\n  \n    \n    mapping(string => bool) public _hashExists;\n\n\n\n  constructor() ERC721(\"UniqueAsset\", \"UNA\") {}\n\n\n\nfunction mint(string memory _hash) public {\n        require(!_hashExists[_hash]);\n        hashes.push(_hash);\n        uint _id = hashes.length  - 1;\n        _mint(msg.sender,_id);\n        _hashExists[_hash] = true;\n}\n}",
  "sourcePath": "/Users/alitanveer/Desktop/Node/DappFeatures_Node.js_Web3/src/contracts/UniqueAsset.sol",
  "compiler": {
    "name": "solc",
    "version": "0.8.9+commit.e5eed63a.Emscripten.clang"
  },
  "schemaVersion": "3.4.3",
  "updatedAt": "2021-10-07T11:05:27.567Z",
  "networkType": "ethereum",
  "devdoc": {
    "kind": "dev",
    "methods": {
      "approve(address,uint256)": {
        "details": "See {IERC721-approve}."
      },
      "balanceOf(address)": {
        "details": "See {IERC721-balanceOf}."
      },
      "getApproved(uint256)": {
        "details": "See {IERC721-getApproved}."
      },
      "isApprovedForAll(address,address)": {
        "details": "See {IERC721-isApprovedForAll}."
      },
      "name()": {
        "details": "See {IERC721Metadata-name}."
      },
      "ownerOf(uint256)": {
        "details": "See {IERC721-ownerOf}."
      },
      "safeTransferFrom(address,address,uint256)": {
        "details": "See {IERC721-safeTransferFrom}."
      },
      "safeTransferFrom(address,address,uint256,bytes)": {
        "details": "See {IERC721-safeTransferFrom}."
      },
      "setApprovalForAll(address,bool)": {
        "details": "See {IERC721-setApprovalForAll}."
      },
      "supportsInterface(bytes4)": {
        "details": "See {IERC165-supportsInterface}."
      },
      "symbol()": {
        "details": "See {IERC721Metadata-symbol}."
      },
      "tokenByIndex(uint256)": {
        "details": "See {IERC721Enumerable-tokenByIndex}."
      },
      "tokenOfOwnerByIndex(address,uint256)": {
        "details": "See {IERC721Enumerable-tokenOfOwnerByIndex}."
      },
      "tokenURI(uint256)": {
        "details": "See {IERC721Metadata-tokenURI}."
      },
      "totalSupply()": {
        "details": "See {IERC721Enumerable-totalSupply}."
      },
      "transferFrom(address,address,uint256)": {
        "details": "See {IERC721-transferFrom}."
      }
    },
    "version": 1
  },
  "userdoc": {
    "kind": "user",
    "methods": {},
    "version": 1
  }
}